:100000000C942D000C94A8010C940F020C940F0278
:100010000C940F020C940F020C940F020C940F021C
:100020000C940F020C940F020C940F020C9401021A
:100030000C940F020C940F020C940F020C940F02FC
:100040000C940F020C940F020C940F020C940F02EC
:100050000C940F0200600062800011241FBECFE5E7
:10006000D8E0DEBFCDBFE4E5F0E040E017C0B591D9
:10007000A59135912591059107FD0CC0959185912C
:10008000EF01F92FE82F05900D92A217B307D9F7CA
:10009000FE0104C01D92A217B307E1F7E935F4078A
:0E00A00031F70E94CF010C94F601F894FFCFC7
:1000AE00843008F072C0683008F06FC04130A1F59E
:1000BE00813089F028F08230C9F0833011F1089533
:1000CE002AB381E090E002C0880F991F6A95E2F78B
:1000DE00822B8ABB089527B381E090E002C0880F7F
:1000EE00991F6A95E2F7822B87BB089524B381E0AE
:1000FE0090E002C0880F991F6A95E2F7822B84BBAD
:10010E00089521B381E090E002C0880F991F6A958F
:10011E00E2F7822B81BB0895411137C0813091F0F7
:10012E0028F08230D9F0833029F108952AB381E086
:10013E0090E002C0880F991F6A95E2F7809582239E
:10014E008ABB089527B381E090E002C0880F991F03
:10015E006A95E2F78095822387BB089524B381E0E8
:10016E0090E002C0880F991F6A95E2F7809582236E
:10017E0084BB089521B381E090E002C0880F991FDF
:0C018E006A95E2F78095822381BB0895FA
:10019A00843008F072C0683008F06FC04130A1F5B1
:1001AA00813089F028F08230C9F0833011F1089546
:1001BA002BB381E090E002C0880F991F6A95E2F79D
:1001CA00822B8BBB089528B381E090E002C0880F90
:1001DA00991F6A95E2F7822B88BB089525B381E0BF
:1001EA0090E002C0880F991F6A95E2F7822B85BBBF
:1001FA00089522B381E090E002C0880F991F6A95A2
:10020A00E2F7822B82BB0895411137C0813091F009
:10021A0028F08230D9F0833029F108952BB381E098
:10022A0090E002C0880F991F6A95E2F780958223B1
:10023A008BBB089528B381E090E002C0880F991F14
:10024A006A95E2F78095822388BB089525B381E0F9
:10025A0090E002C0880F991F6A95E2F78095822381
:10026A0085BB089522B381E090E002C0880F991FF0
:0C027A006A95E2F78095822382BB08950C
:10028600843070F5683070F5813079F028F082306E
:10029600A9F08330E1F028C089B390E002C09595BB
:1002A60087956A95E2F78170089586B390E002C05B
:1002B600959587956A95E2F78170089583B390E0E6
:1002C60002C0959587956A95E2F78170089580B387
:1002D60090E002C0959587956A95E2F7817008953A
:0C02E6008FEF08958FEF08958FEF0895BB
:1002F20041E064E081E00E94570041E065E081E076
:100302000E94570040E066E081E00E94570041E011
:1003120067E081E00E94570041E060E083E00E94D4
:10032200570041E061E083E00E94570041E060E055
:1003320083E00E94CD0041E061E083E00E94CD00B5
:0E0342008DB180618DB98DB180648DB9089543
:100350001F920F920FB60F9211242F933F934F933A
:100360005F936F937F938F939F93AF93BF93EF931D
:10037000FF93E0916000F09161000995FF91EF918A
:10038000BF91AF919F918F917F916F915F914F91AD
:0E0390003F912F910F900FBE0F901F90189568
:10039E000E94790140E060E083E00E94CD0060E0C1
:1003AE0080E00E94430181110AC081E30E940B028A
:1003BE0060E080E00E9443018823D1F3F0CF60E03B
:1003CE0080E00E944301813051F780E30E940B02CE
:0E03DE0060E080E00E9443018130D1F3E0CF67
:1003EC00EC010E9414020E941302CE010E9415021D
:0603FC00CE010E94110277
:100402001F920F920FB60F9211240F900FBE0F90F2
:040412001F9018958A
:080416008FB9779BFECF08951A
:04041E000C9400003A
:040422000E945500DF
:02042600089537
:02042800089535
:02042A00089533
:00000001FF
