:100000000C942D000C9422010C94F4010C94F40136
:100010000C94F4010C94F4010C94F4010C94F4018C
:100020000C94F4010C94F4010C94F4010C94E2018E
:100030000C94F4010C94F4010C94F4010C94F4016C
:100040000C94F4010C94F4010C94F4010C94F4015C
:100050000C94F40100600062800011241FBECFE503
:10006000D8E0DEBFCDBFE4E5F0E040E017C0B591D9
:10007000A59135912591059107FD0CC0959185912C
:10008000EF01F92FE82F05900D92A217B307D9F7CA
:10009000FE0104C01D92A217B307E1F7E935F4078A
:0E00A00031F70E94C5010C94D701F894FFCFF0
:0A00AE004C43442052656164790060
:1000B800843008F072C0683008F06FC04130A1F594
:1000C800813089F028F08230C9F0833011F1089529
:1000D8002BB381E090E002C0880F991F6A95E2F780
:1000E800822B8BBB089528B381E090E002C0880F73
:1000F800991F6A95E2F7822B88BB089525B381E0A2
:1001080090E002C0880F991F6A95E2F7822B85BBA1
:10011800089522B381E090E002C0880F991F6A9584
:10012800E2F7822B82BB0895411137C0813091F0EC
:1001380028F08230D9F0833029F108952BB381E07B
:1001480090E002C0880F991F6A95E2F78095822394
:100158008BBB089528B381E090E002C0880F991FF7
:100168006A95E2F78095822388BB089525B381E0DC
:1001780090E002C0880F991F6A95E2F78095822364
:1001880085BB089522B381E090E002C0880F991FD3
:0C0198006A95E2F78095822382BB0895EF
:1001A400CF93C82F40E065E083E00E945C0040E00C
:1001B40066E083E00E945C0041E067E083E00E9427
:1001C4005C006C2F82E00E94A10187E893E1019713
:1001D400F1F700C0000040E067E083E00E945C00AB
:1001E40087E893E10197F1F700C00000CF910895EB
:1001F400CF93C82F41E065E083E00E945C0040E0BB
:1002040066E083E00E945C0041E067E083E00E94D6
:100214005C006C2F82E00E94A10183ED90E30197C2
:10022400F1F700C0000040E067E083E00E945C005A
:1002340083ED90E30197F1F700C00000CF9108959A
:100244001F920F920FB60F9211242F933F934F9347
:100254005F936F937F938F939F93AF93BF93EF932A
:10026400FF93E0916000F09161000995FF91EF9197
:10027400BF91AF919F918F917F916F915F914F91BA
:0E0284003F912F910F900FBE0F901F90189575
:100292008AB188608AB98AB180618AB980B580687A
:1002A20080BD80B5826080BD80B5846080BD80B530
:1002B2008F7E80BD80B58F7D80BD80B5877F80BDFC
:0E02C20080B58F7B80BD10BC87E689B908959A
:1002D0006FEF82E00E94B3016FEF83E00E94B301F1
:1002E00081EF9BE20197F1F700C0000088E30E94D4
:1002F000D2008EE00E94D20086E00E94D20081E00F
:0C0300000E94D20080E80E94D200089504
:10030C00CF92DF92EF92CF936B01E82EC0E003C047
:10031C000E94FA00CF5FAE2DC6018C0F911DA11D5E
:10032C00FC018491A7FD80818111F2CFCF91EF90D8
:06033C00DF90CF90089550
:10034200843078F4813041F028F0823039F0833003
:1003520039F008956BBB089568BB089565BB089595
:0403620062BB0895DD
:10036600843078F4813041F028F0823039F08330DF
:1003760039F008956ABB089567BB089564BB089574
:0403860061BB0895BA
:10038A000E9468016EEA70E080E00E9486010E9485
:10039A0049010E94F001C82F0E94EC018C2F0E9493
:0403AA00FA00F7CF8F
:1003AE00EC010E94F9010E94F801CE010E94FA01AF
:0603BE00CE010E94F601D1
:1003C4001F920F920FB60F9211240F900FBE0F9031
:0403D4001F901895C9
:0803D80081E00E94D2000895AB
:0803E0005F9BFECF8CB1089574
:0403E8000C94000071
:0403EC000E94550016
:0203F00008956E
:0203F20008956C
:0203F40008956A
:00000001FF
