:100000000C942A000C94E2010C94E2010C94E2019D
:100010000C94E2010C94E2010C94E2010C94E201D4
:100020000C94E2010C94E2010C94E2010C94E201C4
:100030000C94E2010C94E2010C94E2010C94E201B4
:100040000C94E2010C94E2010C94E2010C94E201A4
:100050000C94E20111241FBECFE5D8E0DEBFCDBF76
:0C0060000E9436000C94D701F894FFCFEA
:10006C0041E060E080E00E94B50041E061E080E0AA
:10007C000E94B50041E062E080E00E94B50040E0E3
:10008C0060E081E00E94B50040E061E081E00E9408
:10009C00B50040E062E081E00E94B50060E081E0E4
:1000AC000E94A101482F60E080E00E942B012FEB01
:1000BC0087E299E0215080409040E1F700C00000B9
:1000CC0040E060E080E00E942B012FEB87E299E09A
:1000DC00215080409040E1F700C0000061E081E0D9
:1000EC000E94A101482F61E080E00E942B012FEBC0
:1000FC0087E299E0215080409040E1F700C0000079
:10010C0040E061E080E00E942B012FEB87E299E058
:10011C00215080409040E1F700C0000062E081E097
:10012C000E94A101482F62E080E00E942B012FEB7E
:10013C0087E299E0215080409040E1F700C0000038
:10014C0040E062E080E00E942B012FEB87E299E017
:0E015C00215080409040E1F700C000009FCF8E
:10016A00843008F072C0683008F06FC04130A1F5E1
:10017A00813089F028F08230C9F0833011F1089576
:10018A002AB381E090E002C0880F991F6A95E2F7CE
:10019A00822B8ABB089527B381E090E002C0880FC2
:1001AA00991F6A95E2F7822B87BB089524B381E0F1
:1001BA0090E002C0880F991F6A95E2F7822B84BBF0
:1001CA00089521B381E090E002C0880F991F6A95D3
:1001DA00E2F7822B81BB0895411137C0813091F03B
:1001EA0028F08230D9F0833029F108952AB381E0CA
:1001FA0090E002C0880F991F6A95E2F780958223E2
:10020A008ABB089527B381E090E002C0880F991F46
:10021A006A95E2F78095822387BB089524B381E02B
:10022A0090E002C0880F991F6A95E2F780958223B1
:10023A0084BB089521B381E090E002C0880F991F22
:0C024A006A95E2F78095822381BB08953D
:10025600843008F072C0683008F06FC04130A1F5F4
:10026600813089F028F08230C9F0833011F1089589
:100276002BB381E090E002C0880F991F6A95E2F7E0
:10028600822B8BBB089528B381E090E002C0880FD3
:10029600991F6A95E2F7822B88BB089525B381E002
:1002A60090E002C0880F991F6A95E2F7822B85BB02
:1002B600089522B381E090E002C0880F991F6A95E5
:1002C600E2F7822B82BB0895411137C0813091F04D
:1002D60028F08230D9F0833029F108952BB381E0DC
:1002E60090E002C0880F991F6A95E2F780958223F5
:1002F6008BBB089528B381E090E002C0880F991F58
:100306006A95E2F78095822388BB089525B381E03C
:1003160090E002C0880F991F6A95E2F780958223C4
:1003260085BB089522B381E090E002C0880F991F33
:0C0336006A95E2F78095822382BB08954F
:10034200843070F5683070F5813079F028F08230B1
:10035200A9F08330E1F028C089B390E002C09595FE
:1003620087956A95E2F78170089586B390E002C09E
:10037200959587956A95E2F78170089583B390E029
:1003820002C0959587956A95E2F78170089580B3CA
:1003920090E002C0959587956A95E2F7817008957D
:0C03A2008FEF08958FEF08958FEF0895FE
:1003AE00EC010E94E7010E94E601CE010E94E801E5
:0603BE00CE010E94E401E3
:0403C4000C94000095
:0403C8000E9434005B
:0203CC00089592
:0203CE00089590
:0203D00008958E
:00000001FF
