:100000000C942D000C945E000C94DD000C94DD002B
:100010000C94DD000C94DD000C94DD000C94DD00EC
:100020000C94DD000C94DD000C94DD000C94CF00EA
:100030000C94DD000C94DD000C94DD000C94DD00CC
:100040000C94DD000C94DD000C94DD000C94DD00BC
:100050000C94DD0000600062800011241FBECFE51B
:10006000D8E0DEBFCDBFE4E5F0E040E017C0B591D9
:10007000A59135912591059107FD0CC0959185912C
:10008000EF01F92FE82F05900D92A217B307D9F7CA
:10009000FE0104C01D92A217B307E1F7E935F4078A
:0E00A00031F70E94C5000C94BA00F894FFCF0F
:0E00AE00416468616D204D6168676F75620086
:1000BC001F920F920FB60F9211242F933F934F93D1
:1000CC005F936F937F938F939F93AF93BF93EF93B4
:1000DC00FF93E0916000F09161000995FF91EF9121
:1000EC00BF91AF919F918F917F916F915F914F9144
:0E00FC003F912F910F900FBE0F901F901895FF
:10010A008AB188608AB98AB180618AB980B5806803
:10011A0080BD80B5826080BD80B5846080BD80B5B9
:10012A008F7E80BD80B58F7D80BD80B5877F80BD85
:0E013A0080B58F7B80BD10BC87E689B9089523
:10014800CF92DF92EF926B01E82E06C09FEFC91A9B
:10015800D90AE90A0E94D900F6018491E7FC808156
:0C0168008111F4CFEF90DF90CF9008954C
:10017400EC010E94E2000E94E100CE010E94E30033
:06018400CE010E94DF0025
:10018A000E9485006EEA70E080E00E94A40080E090
:04019A0090E0089554
:10019E001F920F920FB60F9211240F900FBE0F9059
:0401AE001F901895F1
:0801B2005D9BFECF8CB908959E
:0401BA000C940000A1
:0401BE000E94550046
:0201C20008959E
:0201C40008959C
:0201C60008959A
:00000001FF
