:100000000C942D000C94A9010C9408020C94080285
:100010000C9408020C9408020C9408020C94080238
:100020000C9408020C9408020C9408020C94FA0137
:100030000C9408020C9408020C9408020C94080218
:100040000C9408020C9408020C9408020C94080208
:100050000C94080200600062800011241FBECFE5EE
:10006000D8E0DEBFCDBFE4E5F0E040E017C0B591D9
:10007000A59135912591059107FD0CC0959185912C
:10008000EF01F92FE82F05900D92A217B307D9F7CA
:10009000FE0104C01D92A217B307E1F7E935F4078A
:0E00A00031F70E9479010C94EF01F894FFCF24
:1000AE00843008F072C0683008F06FC04130A1F59E
:1000BE00813089F028F08230C9F0833011F1089533
:1000CE002AB381E090E002C0880F991F6A95E2F78B
:1000DE00822B8ABB089527B381E090E002C0880F7F
:1000EE00991F6A95E2F7822B87BB089524B381E0AE
:1000FE0090E002C0880F991F6A95E2F7822B84BBAD
:10010E00089521B381E090E002C0880F991F6A958F
:10011E00E2F7822B81BB0895411137C0813091F0F7
:10012E0028F08230D9F0833029F108952AB381E086
:10013E0090E002C0880F991F6A95E2F7809582239E
:10014E008ABB089527B381E090E002C0880F991F03
:10015E006A95E2F78095822387BB089524B381E0E8
:10016E0090E002C0880F991F6A95E2F7809582236E
:10017E0084BB089521B381E090E002C0880F991FDF
:0C018E006A95E2F78095822381BB0895FA
:10019A00843008F072C0683008F06FC04130A1F5B1
:1001AA00813089F028F08230C9F0833011F1089546
:1001BA002BB381E090E002C0880F991F6A95E2F79D
:1001CA00822B8BBB089528B381E090E002C0880F90
:1001DA00991F6A95E2F7822B88BB089525B381E0BF
:1001EA0090E002C0880F991F6A95E2F7822B85BBBF
:1001FA00089522B381E090E002C0880F991F6A95A2
:10020A00E2F7822B82BB0895411137C0813091F009
:10021A0028F08230D9F0833029F108952BB381E098
:10022A0090E002C0880F991F6A95E2F780958223B1
:10023A008BBB089528B381E090E002C0880F991F14
:10024A006A95E2F78095822388BB089525B381E0F9
:10025A0090E002C0880F991F6A95E2F78095822381
:10026A0085BB089522B381E090E002C0880F991FF0
:0C027A006A95E2F78095822382BB08950C
:10028600843070F5683070F5813079F028F082306E
:10029600A9F08330E1F028C089B390E002C09595BB
:1002A60087956A95E2F78170089586B390E002C05B
:1002B600959587956A95E2F78170089583B390E0E6
:1002C60002C0959587956A95E2F78170089580B387
:1002D60090E002C0959587956A95E2F7817008953A
:0C02E6008FEF08958FEF08958FEF0895BB
:1002F2000E94D00140E060E080E00E94570041E0AF
:1003020060E080E00E94CD0041E060E082E00E9477
:10031200CD0060E080E00E944301813049F481E336
:100322000E94040260E080E00E9443018130D1F328
:1003320060E080E00E9443018111EBCF80E30E94E4
:10034200040260E080E00E9443018823D1F3E1CF00
:100352001F920F920FB60F9211242F933F934F9338
:100362005F936F937F938F939F93AF93BF93EF931B
:10037200FF93E0916000F09161000995FF91EF9188
:10038200BF91AF919F918F917F916F915F914F91AB
:0E0392003F912F910F900FBE0F901F90189566
:1003A0008AB188608AB98AB180618AB980B580686B
:1003B00080BD80B5826080BD80B5846080BD80B521
:1003C0008F7E80BD80B58F7D80BD80B5877F80BDED
:0E03D00080B58F7B80BD10BC87E689B908958B
:1003DE00EC010E940D020E940C02CE010E940E0240
:0603EE00CE010E940A028C
:1003F4001F920F920FB60F9211240F900FBE0F9001
:040404001F90189598
:080408005D9BFECF8CB9089545
:040410000C94000048
:040414000E945500ED
:02041800089545
:02041A00089543
:02041C00089541
:00000001FF
