:100000000C942D000C94BC010C9466020C946602B6
:100010000C9466020C9466020C9466020C946602C0
:100020000C9466020C9466020C9466020C945702BF
:100030000C94E3010C9466020C9466020C94660224
:100040000C9466020C9466020C9466020C94660290
:100050000C94660200600063800011241FBECFE58F
:10006000D8E0DEBFCDBFE4E5F0E040E017C0B591D9
:10007000A59135912591059107FD0CC0959185912C
:10008000EF01F92FE82F05900D92A217B307D9F7CA
:10009000FE0104C01D92A217B307E1F7E935F4078A
:0E00A00031F70E9461020C944C02F894FFCFDD
:1000AE00843008F072C0683008F06FC04130A1F59E
:1000BE00813089F028F08230C9F0833011F1089533
:1000CE002AB381E090E002C0880F991F6A95E2F78B
:1000DE00822B8ABB089527B381E090E002C0880F7F
:1000EE00991F6A95E2F7822B87BB089524B381E0AE
:1000FE0090E002C0880F991F6A95E2F7822B84BBAD
:10010E00089521B381E090E002C0880F991F6A958F
:10011E00E2F7822B81BB0895411137C0813091F0F7
:10012E0028F08230D9F0833029F108952AB381E086
:10013E0090E002C0880F991F6A95E2F7809582239E
:10014E008ABB089527B381E090E002C0880F991F03
:10015E006A95E2F78095822387BB089524B381E0E8
:10016E0090E002C0880F991F6A95E2F7809582236E
:10017E0084BB089521B381E090E002C0880F991FDF
:0C018E006A95E2F78095822381BB0895FA
:10019A00843008F072C0683008F06FC04130A1F5B1
:1001AA00813089F028F08230C9F0833011F1089546
:1001BA002BB381E090E002C0880F991F6A95E2F79D
:1001CA00822B8BBB089528B381E090E002C0880F90
:1001DA00991F6A95E2F7822B88BB089525B381E0BF
:1001EA0090E002C0880F991F6A95E2F7822B85BBBF
:1001FA00089522B381E090E002C0880F991F6A95A2
:10020A00E2F7822B82BB0895411137C0813091F009
:10021A0028F08230D9F0833029F108952BB381E098
:10022A0090E002C0880F991F6A95E2F780958223B1
:10023A008BBB089528B381E090E002C0880F991F14
:10024A006A95E2F78095822388BB089525B381E0F9
:10025A0090E002C0880F991F6A95E2F78095822381
:10026A0085BB089522B381E090E002C0880F991FF0
:0C027A006A95E2F78095822382BB08950C
:100286006FEF80E00E943A0241E060E081E00E9468
:10029600570041E061E081E00E94570041E062E0E2
:1002A60081E00E94570081EF9BE20197F1F700C0C1
:1002B600000088E30E946C018EE00E946C0186E0DB
:1002C6000E946C0181E00E946C0180E80E946C0132
:0202D600089589
:1002D800CF93C82F40E060E081E00E94CD0040E06D
:1002E80061E081E00E94CD0041E062E081E00E948F
:1002F800CD006C2F80E00E94280287E893E10197E7
:10030800F1F700C0000040E062E081E00E94CD000B
:1003180087E893E10197F1F700C00000CF910895B5
:10032800CF93C82F41E060E081E00E94CD0040E01B
:1003380061E081E00E94CD0041E062E081E00E943E
:10034800CD006C2F80E00E94280283ED90E3019796
:10035800F1F700C0000040E062E081E00E94CD00BB
:1003680083ED90E30197F1F700C00000CF91089565
:100378001F920F920FB60F9211242F933F934F9312
:100388005F936F937F938F939F93AF93BF93EF93F5
:10039800FF93E0916100F09162000995FF91EF9160
:1003A800BF91AF919F918F917F916F915F914F9185
:0E03B8003F912F910F900FBE0F901F90189540
:1003C6001F920F920FB60F9211242F933F934F93C4
:1003D6005F936F937F938F939F93AF93BF93EF93A7
:1003E600FF938FB1809360000E949401FF91EF917B
:1003F600BF91AF919F918F917F916F915F914F9137
:0E0406003F912F910F900FBE0F901F901895F1
:1004140040E064E081E00E94570040E065E081E054
:100424000E94570041E066E081E00E94570040E0EE
:1004340067E081E00E9457008DB180648DB98FB769
:0C04440080688FBF8DB180688DB908956D
:10045000843078F4813041F028F0823039F08330F4
:1004600039F008956BBB089568BB089565BB089586
:0404700062BB0895CE
:10047400843078F4813041F028F0823039F08330D0
:1004840039F008956ABB089567BB089564BB089565
:0404940061BB0895AB
:10049800EC010E946B020E946A02CE010E946C026B
:0604A800CE010E94680273
:1004AE001F920F920FB60F9211240F900FBE0F9046
:0404BE001F901895DE
:0A04C2000E9443010E940A02FFCFCE
:0404CC000C9400008C
:0404D0000E94550031
:0204D400089589
:0204D600089587
:0204D800089585
:00000001FF
