:100000000C942A000C946F000C946F000C946F00F9
:100010000C946F000C946F000C946F000C946F00A4
:100020000C946F000C946F000C946F000C946F0094
:100030000C946F000C946F000C946F000C946F0084
:100040000C946F000C946F000C946F000C946F0074
:100050000C946F0011241FBECFE5D8E0DEBFCDBFEA
:0C0060000E9460000C945500F894FFCF43
:10006C008AB188608AB98AB180618AB980B58068A2
:10007C0080BD80B5826080BD80B5846080BD80B558
:10008C008F7E80BD80B58F7D80BD80B5877F80BD24
:0E009C0080B58F7B80BD10BC87E689B90895C2
:1000AA00EC010E9474000E947300CE010E94750048
:0600BA00CE010E9471005E
:0E00C0000E9436000E946B000E946700FBCF7A
:0800CE005D9BFECF8CB9089583
:0800D6005F9BFECF8CB1089581
:0400DE000C9400007E
:0400E2000E94340044
:0200E60008957B
:0200E800089579
:0200EA00089577
:00000001FF
