:100000000C942A000C946F010C946F010C946F01F6
:100010000C946F010C946F010C946F010C946F01A0
:100020000C946F010C946F010C946F010C946F0190
:100030000C946F010C946F010C946F010C946F0180
:100040000C946F010C946F010C946F010C946F0170
:100050000C946F0111241FBECFE5D8E0DEBFCDBFE9
:0C0060000E9461010C945601F894FFCF3F
:10006C00843008F072C0683008F06FC04130A1F5E0
:10007C00813089F028F08230C9F0833011F1089575
:10008C002BB381E090E002C0880F991F6A95E2F7CC
:10009C00822B8BBB089528B381E090E002C0880FBF
:1000AC00991F6A95E2F7822B88BB089525B381E0EE
:1000BC0090E002C0880F991F6A95E2F7822B85BBEE
:1000CC00089522B381E090E002C0880F991F6A95D1
:1000DC00E2F7822B82BB0895411137C0813091F039
:1000EC0028F08230D9F0833029F108952BB381E0C8
:1000FC0090E002C0880F991F6A95E2F780958223E1
:10010C008BBB089528B381E090E002C0880F991F43
:10011C006A95E2F78095822388BB089525B381E028
:10012C0090E002C0880F991F6A95E2F780958223B0
:10013C0085BB089522B381E090E002C0880F991F1F
:0C014C006A95E2F78095822382BB08953B
:10015800CF93C82F40E060E081E00E94360040E085
:1001680061E081E00E94360041E062E081E00E94A7
:1001780036006C2F80E00E94320181EE94E00197F6
:10018800F1F700C0000040E062E081E00E94360024
:1001980081EE94E00197F1F700C00000CF91089537
:1001A800CF93C82F41E060E081E00E94360040E034
:1001B80061E081E00E94360041E062E081E00E9457
:1001C80036006C2F80E00E94320181EE94E00197A6
:1001D800F1F700C0000040E062E081E00E943600D4
:1001E80081EE94E00197F1F700C00000CF910895E7
:1001F8006FEF80E00E9444016FEF81E00E944401AC
:100208008FE097E20197F1F700C0000088E30E94B1
:10021800AC008EE00E94AC0086E00E94AC0081E059
:0C0228000E94AC0080E80E94AC00089529
:100234001F93CF93DF93162F813019F480EC0E9423
:10024400AC00C0E0D0E003C00E946B012196812F76
:1002540090E0C817D907C4F3DF91CF911F91089597
:10026400843078F4813041F028F0823039F08330E2
:1002740039F008956BBB089568BB089565BB089574
:0402840062BB0895BC
:10028800843078F4813041F028F0823039F08330BE
:1002980039F008956ABB089567BB089564BB089553
:0402A80061BB089599
:1002AC00EC010E9474010E947301CE010E94750141
:0602BC00CE010E94710159
:1002C2000E94FC0081E40E94D40062E081E00E946E
:0402D2001A01FFCF3F
:0802D60084E10E94AC000895D0
:0402DE000C9400007C
:0402E2000E94340042
:0202E600089579
:0202E800089577
:0202EA00089575
:00000001FF
