:100000000C942D000C9403010C9480010C9480013D
:100010000C9480010C9480010C9480010C9480015C
:100020000C9480010C9480010C9480010C9472015A
:100030000C9480010C9480010C9480010C9480013C
:100040000C9480010C9480010C9480010C9480012C
:100050000C94800100600062800011241FBECFE577
:10006000D8E0DEBFCDBFE4E5F0E040E017C0B591D9
:10007000A59135912591059107FD0CC0959185912C
:10008000EF01F92FE82F05900D92A217B307D9F7CA
:10009000FE0104C01D92A217B307E1F7E935F4078A
:0E00A00031F70E942A010C946701F894FFCFFB
:1000AE00843008F072C0683008F06FC04130A1F59E
:1000BE00813089F028F08230C9F0833011F1089533
:1000CE002AB381E090E002C0880F991F6A95E2F78B
:1000DE00822B8ABB089527B381E090E002C0880F7F
:1000EE00991F6A95E2F7822B87BB089524B381E0AE
:1000FE0090E002C0880F991F6A95E2F7822B84BBAD
:10010E00089521B381E090E002C0880F991F6A958F
:10011E00E2F7822B81BB0895411137C0813091F0F7
:10012E0028F08230D9F0833029F108952AB381E086
:10013E0090E002C0880F991F6A95E2F7809582239E
:10014E008ABB089527B381E090E002C0880F991F03
:10015E006A95E2F78095822387BB089524B381E0E8
:10016E0090E002C0880F991F6A95E2F7809582236E
:10017E0084BB089521B381E090E002C0880F991FDF
:0C018E006A95E2F78095822381BB0895FA
:10019A00843070F5683070F5813079F028F082305B
:1001AA00A9F08330E1F028C089B390E002C09595A8
:1001BA0087956A95E2F78170089586B390E002C048
:1001CA00959587956A95E2F78170089583B390E0D3
:1001DA0002C0959587956A95E2F78170089580B374
:1001EA0090E002C0959587956A95E2F78170089527
:0C01FA008FEF08958FEF08958FEF0895A8
:100206001F920F920FB60F9211242F933F934F9385
:100216005F936F937F938F939F93AF93BF93EF9368
:10022600FF93E0916000F09161000995FF91EF91D5
:10023600BF91AF919F918F917F916F915F914F91F8
:0E0246003F912F910F900FBE0F901F901895B3
:100254000E944C0160E080E00E94CD0081110AC040
:1002640081E30E947C0160E080E00E94CD0088234D
:10027400D1F3F0CF60E080E00E94CD00813051F7EF
:1002840080E30E947C0160E080E00E94CD00813028
:04029400D1F3E0CFF3
:1002980041E064E081E00E94570041E065E081E0D0
:1002A8000E94570040E066E081E00E94570041E06C
:1002B80067E081E00E9457008DB180618DB98DB1F2
:0602C80080648DB9089569
:1002CE00EC010E9485010E948401CE010E948601EC
:0602DE00CE010E94820126
:1002E4001F920F920FB60F9211240F900FBE0F9012
:0402F4001F901895AA
:0802F8008FB9779BFECF08953A
:040300000C94000059
:040304000E945500FE
:02030800089556
:02030A00089554
:02030C00089552
:00000001FF
