:100000000C942D000C9493010C9459020C945902F9
:100010000C9459020C9459020C9459020C945902F4
:100020000C9459020C9459020C9459020C944702F6
:100030000C9459020C9459020C9459020C945902D4
:100040000C9459020C9459020C9459020C945902C4
:100050000C94590200600062800011241FBECFE59D
:10006000D8E0DEBFCDBFE4E5F0E040E017C0B591D9
:10007000A59135912591059107FD0CC0959185912C
:10008000EF01F92FE82F05900D92A217B307D9F7CA
:10009000FE0104C01D92A217B307E1F7E935F4078A
:0E00A00031F70E94BA010C943C02F894FFCF95
:1000AE00843008F072C0683008F06FC04130A1F59E
:1000BE00813089F028F08230C9F0833011F1089533
:1000CE002AB381E090E002C0880F991F6A95E2F78B
:1000DE00822B8ABB089527B381E090E002C0880F7F
:1000EE00991F6A95E2F7822B87BB089524B381E0AE
:1000FE0090E002C0880F991F6A95E2F7822B84BBAD
:10010E00089521B381E090E002C0880F991F6A958F
:10011E00E2F7822B81BB0895411137C0813091F0F7
:10012E0028F08230D9F0833029F108952AB381E086
:10013E0090E002C0880F991F6A95E2F7809582239E
:10014E008ABB089527B381E090E002C0880F991F03
:10015E006A95E2F78095822387BB089524B381E0E8
:10016E0090E002C0880F991F6A95E2F7809582236E
:10017E0084BB089521B381E090E002C0880F991FDF
:0C018E006A95E2F78095822381BB0895FA
:10019A00843008F072C0683008F06FC04130A1F5B1
:1001AA00813089F028F08230C9F0833011F1089546
:1001BA002BB381E090E002C0880F991F6A95E2F79D
:1001CA00822B8BBB089528B381E090E002C0880F90
:1001DA00991F6A95E2F7822B88BB089525B381E0BF
:1001EA0090E002C0880F991F6A95E2F7822B85BBBF
:1001FA00089522B381E090E002C0880F991F6A95A2
:10020A00E2F7822B82BB0895411137C0813091F009
:10021A0028F08230D9F0833029F108952BB381E098
:10022A0090E002C0880F991F6A95E2F780958223B1
:10023A008BBB089528B381E090E002C0880F991F14
:10024A006A95E2F78095822388BB089525B381E0F9
:10025A0090E002C0880F991F6A95E2F78095822381
:10026A0085BB089522B381E090E002C0880F991FF0
:0C027A006A95E2F78095822382BB08950C
:10028600CF93C82F40E060E081E00E94CD0040E0BF
:1002960061E081E00E94CD0041E062E081E00E94E1
:1002A600CD006C2F80E00E94180287E893E1019749
:1002B600F1F700C0000040E062E081E00E94CD005E
:1002C60087E893E10197F1F700C00000CF91089508
:1002D600CF93C82F41E060E081E00E94CD0040E06E
:1002E60061E081E00E94CD0041E062E081E00E9491
:1002F600CD006C2F80E00E94180283ED90E30197F9
:10030600F1F700C0000040E062E081E00E94CD000D
:1003160083ED90E30197F1F700C00000CF910895B7
:100326001F920F920FB60F9211242F933F934F9364
:100336005F936F937F938F939F93AF93BF93EF9347
:10034600FF93E0916000F09161000995FF91EF91B4
:10035600BF91AF919F918F917F916F915F914F91D7
:0E0366003F912F910F900FBE0F901F90189592
:100374000E94FA010E94DB0141E060E082E00E94F9
:1003840057000E945502C82F0E9451028C2F0E94D0
:100394006B01C13331F441E060E082E00E94CD00A2
:1003A400F0CFC03371F740E060E082E00E94CD00FE
:0203B400E8CF90
:1003B6008AB188608AB98AB180618AB980B5806855
:1003C60080BD80B5826080BD80B5846080BD80B50B
:1003D6008F7E80BD80B58F7D80BD80B5877F80BDD7
:0E03E60080B58F7B80BD10BC87E689B9089575
:1003F4006FEF80E00E942A026FEF81E00E942A02E0
:1004040081EF9BE20197F1F700C0000088E30E94AE
:1004140043018EE00E94430186E00E94430181E093
:0C0424000E94430180E80E9443010895FB
:10043000843078F4813041F028F0823039F0833014
:1004400039F008956BBB089568BB089565BB0895A6
:0404500062BB0895EE
:10045400843078F4813041F028F0823039F08330F0
:1004640039F008956ABB089567BB089564BB089585
:0404740061BB0895CB
:10047800EC010E945E020E945D02CE010E945F02B2
:06048800CE010E945B02A0
:10048E001F920F920FB60F9211240F900FBE0F9066
:04049E001F901895FE
:0804A20081E00E94430108956E
:0804AA005F9BFECF8CB10895A9
:0404B2000C940000A6
:0404B6000E9455004B
:0204BA000895A3
:0204BC000895A1
:0204BE0008959F
:00000001FF
