:100000000C942D000C9450020C9400030C940003EB
:100010000C9400030C9400030C9400030C94000354
:100020000C9400030C9400030C9400030C94B60190
:100030000C9400030C9400030C9400030C94000334
:100040000C9400030C9400030C9400030C94000324
:100050000C94000300600066800011241FBECFE5F1
:10006000D8E0DEBFCDBFE4E5F0E040E017C0B591D9
:10007000A59135912591059107FD0CC0959185912C
:10008000EF01F92FE82F05900D92A217B307D9F7CA
:10009000FE0104C01D92A217B307E1F7E935F4078A
:0E00A00031F70E94F6020C94EB02F894FFCFA9
:1000AE00843008F072C0683008F06FC04130A1F59E
:1000BE00813089F028F08230C9F0833011F1089533
:1000CE002AB381E090E002C0880F991F6A95E2F78B
:1000DE00822B8ABB089527B381E090E002C0880F7F
:1000EE00991F6A95E2F7822B87BB089524B381E0AE
:1000FE0090E002C0880F991F6A95E2F7822B84BBAD
:10010E00089521B381E090E002C0880F991F6A958F
:10011E00E2F7822B81BB0895411137C0813091F0F7
:10012E0028F08230D9F0833029F108952AB381E086
:10013E0090E002C0880F991F6A95E2F7809582239E
:10014E008ABB089527B381E090E002C0880F991F03
:10015E006A95E2F78095822387BB089524B381E0E8
:10016E0090E002C0880F991F6A95E2F7809582236E
:10017E0084BB089521B381E090E002C0880F991FDF
:0C018E006A95E2F78095822381BB0895FA
:10019A00843008F072C0683008F06FC04130A1F5B1
:1001AA00813089F028F08230C9F0833011F1089546
:1001BA002BB381E090E002C0880F991F6A95E2F79D
:1001CA00822B8BBB089528B381E090E002C0880F90
:1001DA00991F6A95E2F7822B88BB089525B381E0BF
:1001EA0090E002C0880F991F6A95E2F7822B85BBBF
:1001FA00089522B381E090E002C0880F991F6A95A2
:10020A00E2F7822B82BB0895411137C0813091F009
:10021A0028F08230D9F0833029F108952BB381E098
:10022A0090E002C0880F991F6A95E2F780958223B1
:10023A008BBB089528B381E090E002C0880F991F14
:10024A006A95E2F78095822388BB089525B381E0F9
:10025A0090E002C0880F991F6A95E2F78095822381
:10026A0085BB089522B381E090E002C0880F991FF0
:0C027A006A95E2F78095822382BB08950C
:100286000F931F93CF93DF93CDB7DEB764970FB667
:10029600F894DEBF0FBECDBFAC01FE01319684E1FE
:1002A600DF011D928A95E9F741155105C9F580E3ED
:1002B6000E9428024DC09A01ADECBCEC0E94DC0203
:1002C6009695879596958795969587959C01220F85
:1002D600331F880F991F880F991F880F991F820F48
:1002E600931F9A01281B390BC901C096F801EE0F1E
:1002F600FF1FA1E0B0E0AC0FBD1FEA0FFB1F91830B
:1003060080839A01ADECBCEC0E94DC02AC015695F0
:10031600479556954795569547950F5F1F4F02C0CF
:1003260000E010E04115510531F6015011090EC0EB
:10033600F801EE0FFF1F21E030E02C0F3D1FE20F0A
:10034600F31F80810E94280201501109112384F7AE
:1003560064960FB6F894DEBF0FBECDBFDF91CF9186
:060366001F910F910895A4
:10036C001F920F920FB60F9211242F933F934F931E
:10037C005F936F937F938F939F93AF93BF93EF9301
:10038C00FF938091640090916500019690936500B5
:10039C008093640083349F40E1F4809162009091DB
:1003AC006300019690936300809362001092650045
:1003BC001092640080E482BF81E00E940002809170
:1003CC006200909163000E9443019BB381E08927F6
:1003DC008BBBFF91EF91BF91AF919F918F917F91CB
:1003EC006F915F914F913F912F910F900FBE0F9096
:0403FC001F901895A1
:10040000CF93C82F40E060E083E00E94CD0040E041
:1004100061E083E00E94CD0041E062E083E00E9461
:10042000CD006C2F82E00E94B8028FE097E2019726
:10043000F1F700C0000040E062E083E00E94CD00E0
:100440008FE097E20197F1F700C00000CF91089587
:10045000CF93C82F41E060E083E00E94CD0040E0F0
:1004600061E083E00E94CD0041E062E083E00E9411
:10047000CD006C2F82E00E94B8028FE097E20197D6
:10048000F1F700C0000040E062E083E00E94CD0090
:100490008FE097E20197F1F700C00000CF91089537
:1004A0001F920F920FB60F9211242F933F934F93E9
:1004B0005F936F937F938F939F93AF93BF93EF93CC
:1004C000FF93E0916000F09161000995FF91EF9139
:1004D000BF91AF919F918F917F916F915F914F915C
:0E04E0003F912F910F900FBE0F901F90189517
:1004EE008FB780688FBF12BE83B78F7B83BF83B7F2
:1004FE00877F83BF83B78F7E83BF83B78F7D83BF95
:10050E0083B78F7E83BF83B78F7D83BF83B78E7F85
:10051E0083BF83B7826083BF83B78B7F83BF89B767
:06052E00816089BF089501
:100534006FEF82E00E94CA026FEF83E00E94CA025A
:100544008FE39CE90197F1F700C0000088E30E9463
:1005540000028EE00E94000286E00E94000281E018
:0C0564000E94000280E80E94000208953E
:10057000843078F4813041F028F0823039F08330D3
:1005800039F008956BBB089568BB089565BB089565
:0405900062BB0895AD
:10059400843078F4813041F028F0823039F08330AF
:1005A40039F008956ABB089567BB089564BB089544
:0405B40061BB08958A
:1005B800A29FB001B39FC001A39F700D811D11249C
:0E05C800911DB29F700D811D1124911D08958B
:1005D600EC010E9405030E940403CE010E9406035B
:0605E600CE010E94020399
:1005EC000E949A020E94770241E060E080E00E9443
:0405FC005700FFCFD6
:040600000C94000056
:040604000E945500FB
:02060800089553
:02060A00089551
:02060C0008954F
:00000001FF
