:100000000C942D000C9443010C9494010C949401D5
:100010000C9494010C9494010C9494010C9494010C
:100020000C9494010C9494010C9494010C948A0106
:100030000C9494010C9494010C9494010C949401EC
:100040000C9494010C9494010C9494010C949401DC
:100050000C94940100600062800011241FBECFE563
:10006000D8E0DEBFCDBFE4E5F0E040E017C0B591D9
:10007000A59135912591059107FD0CC0959185912C
:10008000EF01F92FE82F05900D92A217B307D9F7CA
:10009000FE0104C01D92A217B307E1F7E935F4078A
:0E00A00031F70E946A010C947F01F894FFCFA3
:1000AE00843008F072C0683008F06FC04130A1F59E
:1000BE00813089F028F08230C9F0833011F1089533
:1000CE002AB381E090E002C0880F991F6A95E2F78B
:1000DE00822B8ABB089527B381E090E002C0880F7F
:1000EE00991F6A95E2F7822B87BB089524B381E0AE
:1000FE0090E002C0880F991F6A95E2F7822B84BBAD
:10010E00089521B381E090E002C0880F991F6A958F
:10011E00E2F7822B81BB0895411137C0813091F0F7
:10012E0028F08230D9F0833029F108952AB381E086
:10013E0090E002C0880F991F6A95E2F7809582239E
:10014E008ABB089527B381E090E002C0880F991F03
:10015E006A95E2F78095822387BB089524B381E0E8
:10016E0090E002C0880F991F6A95E2F7809582236E
:10017E0084BB089521B381E090E002C0880F991FDF
:0C018E006A95E2F78095822381BB0895FA
:10019A00843008F072C0683008F06FC04130A1F5B1
:1001AA00813089F028F08230C9F0833011F1089546
:1001BA002BB381E090E002C0880F991F6A95E2F79D
:1001CA00822B8BBB089528B381E090E002C0880F90
:1001DA00991F6A95E2F7822B88BB089525B381E0BF
:1001EA0090E002C0880F991F6A95E2F7822B85BBBF
:1001FA00089522B381E090E002C0880F991F6A95A2
:10020A00E2F7822B82BB0895411137C0813091F009
:10021A0028F08230D9F0833029F108952BB381E098
:10022A0090E002C0880F991F6A95E2F780958223B1
:10023A008BBB089528B381E090E002C0880F991F14
:10024A006A95E2F78095822388BB089525B381E0F9
:10025A0090E002C0880F991F6A95E2F78095822381
:10026A0085BB089522B381E090E002C0880F991FF0
:0C027A006A95E2F78095822382BB08950C
:100286001F920F920FB60F9211242F933F934F9305
:100296005F936F937F938F939F93AF93BF93EF93E8
:1002A600FF93E0916000F09161000995FF91EF9155
:1002B600BF91AF919F918F917F916F915F914F9178
:0E02C6003F912F910F900FBE0F901F90189533
:1002D4001ABA81E08BBB41E060E00E945700C899E4
:1002E40006C041E060E081E00E94CD00F8CF40E02C
:0A02F40060E081E00E94CD00F2CF2F
:1002FE00EC010E9499010E949801CE010E949A0180
:06030E00CE010E949601E1
:100314001F920F920FB60F9211240F900FBE0F90E1
:040324001F90189579
:040328000C94000031
:04032C000E945500D6
:0203300008952E
:0203320008952C
:0203340008952A
:00000001FF
