:100000000C942D000C9457000C9499000C949900BA
:100010000C9499000C9499000C9499000C949900FC
:100020000C9499000C9499000C9499000C948900FC
:100030000C9499000C9499000C9499000C949900DC
:100040000C9499000C9499000C9499000C949900CC
:100050000C94990000600062800011241FBECFE55F
:10006000D8E0DEBFCDBFE4E5F0E040E017C0B591D9
:10007000A59135912591059107FD0CC0959185912C
:10008000EF01F92FE82F05900D92A217B307D9F7CA
:10009000FE0104C01D92A217B307E1F7E935F4078A
:0E00A00031F70E9493000C947E00F894FFCF7D
:1000AE001F920F920FB60F9211242F933F934F93DF
:1000BE005F936F937F938F939F93AF93BF93EF93C2
:1000CE00FF93E0916000F09161000995FF91EF912F
:1000DE00BF91AF919F918F917F916F915F914F9152
:0E00EE003F912F910F900FBE0F901F9018950D
:1000FC00EC010E949E000E949D00CE010E949F0078
:06010C00CE010E949B00E1
:100112001F920F920FB60F9211240F900FBE0F90E5
:040122001F9018957D
:0C0126008FEF8BBB8FE08BBB1BBAFFCFB1
:040132000C94000029
:040136000E945500CE
:02013A00089526
:02013C00089524
:02013E00089522
:00000001FF
